{
  "abi": [
    {
      "type": "constructor",
      "inputs": [
        {
          "name": "_paymentToken",
          "type": "address",
          "internalType": "address"
        },
        {
          "name": "_pythOracle",
          "type": "address",
          "internalType": "address"
        }
      ],
      "stateMutability": "nonpayable"
    },
    {
      "type": "function",
      "name": "FEE_PERCENTAGE",
      "inputs": [],
      "outputs": [
        {
          "name": "",
          "type": "uint256",
          "internalType": "uint256"
        }
      ],
      "stateMutability": "view"
    },
    {
      "type": "function",
      "name": "buyShares",
      "inputs": [
        {
          "name": "_marketId",
          "type": "uint256",
          "internalType": "uint256"
        },
        {
          "name": "_isYes",
          "type": "bool",
          "internalType": "bool"
        },
        {
          "name": "_amount",
          "type": "uint256",
          "internalType": "uint256"
        }
      ],
      "outputs": [],
      "stateMutability": "nonpayable"
    },
    {
      "type": "function",
      "name": "claimRewards",
      "inputs": [
        {
          "name": "_marketId",
          "type": "uint256",
          "internalType": "uint256"
        }
      ],
      "outputs": [],
      "stateMutability": "nonpayable"
    },
    {
      "type": "function",
      "name": "createMarket",
      "inputs": [
        {
          "name": "_cryptoPair",
          "type": "string",
          "internalType": "string"
        },
        {
          "name": "_strikePrice",
          "type": "uint256",
          "internalType": "uint256"
        },
        {
          "name": "_endTime",
          "type": "uint256",
          "internalType": "uint256"
        },
        {
          "name": "_resolutionTime",
          "type": "uint256",
          "internalType": "uint256"
        },
        {
          "name": "_pythPriceId",
          "type": "bytes32",
          "internalType": "bytes32"
        }
      ],
      "outputs": [],
      "stateMutability": "nonpayable"
    },
    {
      "type": "function",
      "name": "getMarketDetails",
      "inputs": [
        {
          "name": "_marketId",
          "type": "uint256",
          "internalType": "uint256"
        }
      ],
      "outputs": [
        {
          "name": "cryptoPair",
          "type": "string",
          "internalType": "string"
        },
        {
          "name": "strikePrice",
          "type": "uint256",
          "internalType": "uint256"
        },
        {
          "name": "endTime",
          "type": "uint256",
          "internalType": "uint256"
        },
        {
          "name": "resolutionTime",
          "type": "uint256",
          "internalType": "uint256"
        },
        {
          "name": "totalYesShares",
          "type": "uint256",
          "internalType": "uint256"
        },
        {
          "name": "totalNoShares",
          "type": "uint256",
          "internalType": "uint256"
        },
        {
          "name": "resolved",
          "type": "bool",
          "internalType": "bool"
        },
        {
          "name": "outcome",
          "type": "bool",
          "internalType": "bool"
        }
      ],
      "stateMutability": "view"
    },
    {
      "type": "function",
      "name": "getUserPosition",
      "inputs": [
        {
          "name": "_marketId",
          "type": "uint256",
          "internalType": "uint256"
        },
        {
          "name": "_user",
          "type": "address",
          "internalType": "address"
        }
      ],
      "outputs": [
        {
          "name": "yesShares",
          "type": "uint256",
          "internalType": "uint256"
        },
        {
          "name": "noShares",
          "type": "uint256",
          "internalType": "uint256"
        }
      ],
      "stateMutability": "view"
    },
    {
      "type": "function",
      "name": "marketCount",
      "inputs": [],
      "outputs": [
        {
          "name": "",
          "type": "uint256",
          "internalType": "uint256"
        }
      ],
      "stateMutability": "view"
    },
    {
      "type": "function",
      "name": "markets",
      "inputs": [
        {
          "name": "",
          "type": "uint256",
          "internalType": "uint256"
        }
      ],
      "outputs": [
        {
          "name": "id",
          "type": "uint256",
          "internalType": "uint256"
        },
        {
          "name": "cryptoPair",
          "type": "string",
          "internalType": "string"
        },
        {
          "name": "strikePrice",
          "type": "uint256",
          "internalType": "uint256"
        },
        {
          "name": "endTime",
          "type": "uint256",
          "internalType": "uint256"
        },
        {
          "name": "resolutionTime",
          "type": "uint256",
          "internalType": "uint256"
        },
        {
          "name": "pythPriceId",
          "type": "bytes32",
          "internalType": "bytes32"
        },
        {
          "name": "totalYesShares",
          "type": "uint256",
          "internalType": "uint256"
        },
        {
          "name": "totalNoShares",
          "type": "uint256",
          "internalType": "uint256"
        },
        {
          "name": "resolved",
          "type": "bool",
          "internalType": "bool"
        },
        {
          "name": "outcome",
          "type": "bool",
          "internalType": "bool"
        }
      ],
      "stateMutability": "view"
    },
    {
      "type": "function",
      "name": "paymentToken",
      "inputs": [],
      "outputs": [
        {
          "name": "",
          "type": "address",
          "internalType": "contract IERC20"
        }
      ],
      "stateMutability": "view"
    },
    {
      "type": "function",
      "name": "pythOracle",
      "inputs": [],
      "outputs": [
        {
          "name": "",
          "type": "address",
          "internalType": "contract IPyth"
        }
      ],
      "stateMutability": "view"
    },
    {
      "type": "function",
      "name": "resolveMarket",
      "inputs": [
        {
          "name": "_marketId",
          "type": "uint256",
          "internalType": "uint256"
        },
        {
          "name": "_pythUpdateData",
          "type": "bytes[]",
          "internalType": "bytes[]"
        }
      ],
      "outputs": [],
      "stateMutability": "payable"
    },
    {
      "type": "function",
      "name": "sellShares",
      "inputs": [
        {
          "name": "_marketId",
          "type": "uint256",
          "internalType": "uint256"
        },
        {
          "name": "_isYes",
          "type": "bool",
          "internalType": "bool"
        },
        {
          "name": "_amount",
          "type": "uint256",
          "internalType": "uint256"
        }
      ],
      "outputs": [],
      "stateMutability": "nonpayable"
    },
    {
      "type": "function",
      "name": "userPositions",
      "inputs": [
        {
          "name": "",
          "type": "uint256",
          "internalType": "uint256"
        },
        {
          "name": "",
          "type": "address",
          "internalType": "address"
        }
      ],
      "outputs": [
        {
          "name": "yesShares",
          "type": "uint256",
          "internalType": "uint256"
        },
        {
          "name": "noShares",
          "type": "uint256",
          "internalType": "uint256"
        }
      ],
      "stateMutability": "view"
    },
    {
      "type": "event",
      "name": "MarketCreated",
      "inputs": [
        {
          "name": "marketId",
          "type": "uint256",
          "indexed": true,
          "internalType": "uint256"
        },
        {
          "name": "cryptoPair",
          "type": "string",
          "indexed": false,
          "internalType": "string"
        },
        {
          "name": "strikePrice",
          "type": "uint256",
          "indexed": false,
          "internalType": "uint256"
        },
        {
          "name": "endTime",
          "type": "uint256",
          "indexed": false,
          "internalType": "uint256"
        },
        {
          "name": "resolutionTime",
          "type": "uint256",
          "indexed": false,
          "internalType": "uint256"
        }
      ],
      "anonymous": false
    },
    {
      "type": "event",
      "name": "MarketResolved",
      "inputs": [
        {
          "name": "marketId",
          "type": "uint256",
          "indexed": true,
          "internalType": "uint256"
        },
        {
          "name": "outcome",
          "type": "bool",
          "indexed": false,
          "internalType": "bool"
        },
        {
          "name": "resolutionPrice",
          "type": "uint256",
          "indexed": false,
          "internalType": "uint256"
        }
      ],
      "anonymous": false
    },
    {
      "type": "event",
      "name": "RewardsClaimed",
      "inputs": [
        {
          "name": "marketId",
          "type": "uint256",
          "indexed": true,
          "internalType": "uint256"
        },
        {
          "name": "user",
          "type": "address",
          "indexed": true,
          "internalType": "address"
        },
        {
          "name": "amount",
          "type": "uint256",
          "indexed": false,
          "internalType": "uint256"
        }
      ],
      "anonymous": false
    },
    {
      "type": "event",
      "name": "SharesBought",
      "inputs": [
        {
          "name": "marketId",
          "type": "uint256",
          "indexed": true,
          "internalType": "uint256"
        },
        {
          "name": "buyer",
          "type": "address",
          "indexed": true,
          "internalType": "address"
        },
        {
          "name": "isYes",
          "type": "bool",
          "indexed": false,
          "internalType": "bool"
        },
        {
          "name": "amount",
          "type": "uint256",
          "indexed": false,
          "internalType": "uint256"
        }
      ],
      "anonymous": false
    },
    {
      "type": "event",
      "name": "SharesSold",
      "inputs": [
        {
          "name": "marketId",
          "type": "uint256",
          "indexed": true,
          "internalType": "uint256"
        },
        {
          "name": "seller",
          "type": "address",
          "indexed": true,
          "internalType": "address"
        },
        {
          "name": "isYes",
          "type": "bool",
          "indexed": false,
          "internalType": "bool"
        },
        {
          "name": "amount",
          "type": "uint256",
          "indexed": false,
          "internalType": "uint256"
        }
      ],
      "anonymous": false
    },
    {
      "type": "error",
      "name": "ReentrancyGuardReentrantCall",
      "inputs": []
    },
    {
      "type": "error",
      "name": "SafeERC20FailedOperation",
      "inputs": [
        {
          "name": "token",
          "type": "address",
          "internalType": "address"
        }
      ]
    }
  ],
  "bytecode": {
    "object": "0x6080604052348015600f57600080fd5b50604051611a06380380611a06833981016040819052602c91607c565b6001600081905580546001600160a01b039384166001600160a01b0319918216179091556002805492909316911617905560aa565b80516001600160a01b0381168114607757600080fd5b919050565b60008060408385031215608e57600080fd5b6095836061565b915060a1602084016061565b90509250929050565b61194d806100b96000396000f3fe6080604052600436106100c15760003560e01c80638ae907f01161007f578063b1283e7711610059578063b1283e771461026e578063cd9c30bb146102a4578063ec979082146102c4578063f5d6ac90146102da57600080fd5b80638ae907f0146101e857806392a8db3f14610227578063b06c1ba31461023a57600080fd5b80620b46f8146100c65780630962ef79146100ee5780632ae3b49f146101105780633013ce291461013057806339b4637214610168578063869da9db14610188575b600080fd5b3480156100d257600080fd5b506100db600181565b6040519081526020015b60405180910390f35b3480156100fa57600080fd5b5061010e610109366004611121565b6102fa565b005b34801561011c57600080fd5b5061010e61012b3660046111aa565b6104a9565b34801561013c57600080fd5b50600154610150906001600160a01b031681565b6040516001600160a01b0390911681526020016100e5565b34801561017457600080fd5b5061010e610183366004611261565b6106f9565b34801561019457600080fd5b506101d36101a336600461129e565b60009182526005602090815260408084206001600160a01b03939093168452919052902080546001909101549091565b604080519283526020830191909152016100e5565b3480156101f457600080fd5b506101d361020336600461129e565b60056020908152600092835260408084209091529082529020805460019091015482565b61010e6102353660046112da565b6108eb565b34801561024657600080fd5b5061025a610255366004611121565b610b87565b6040516100e59897969594939291906113a1565b34801561027a57600080fd5b5061028e610289366004611121565b610c93565b6040516100e59a999897969594939291906113f0565b3480156102b057600080fd5b5061010e6102bf366004611261565b610d70565b3480156102d057600080fd5b506100db60035481565b3480156102e657600080fd5b50600254610150906001600160a01b031681565b610302610fe8565b6000818152600460205260409020600881015460ff166103695760405162461bcd60e51b815260206004820152601760248201527f4d61726b6574206e6f74207265736f6c7665642079657400000000000000000060448201526064015b60405180910390fd5b600082815260056020908152604080832033845290915281206008830154909190610100900460ff16156103c857600683015460078401546103ab9082611466565b83546103b7919061147f565b6103c19190611496565b90506103f9565b600783015460068401546103dd908290611466565b83600101546103ec919061147f565b6103f69190611496565b90505b6000811161043f5760405162461bcd60e51b81526020600482015260136024820152724e6f207265776172647320746f20636c61696d60681b6044820152606401610360565b600080835560018084019190915554610462906001600160a01b03163383611012565b604051818152339085907f3300bdb359cfb956935bca32e9db727413eab1ca84341f2e36caea85bb7969689060200160405180910390a35050506104a66001600055565b50565b4283116104f85760405162461bcd60e51b815260206004820152601e60248201527f456e642074696d65206d75737420626520696e207468652066757475726500006044820152606401610360565b8282116105565760405162461bcd60e51b815260206004820152602660248201527f5265736f6c7574696f6e2074696d65206d75737420626520616674657220656e604482015265642074696d6560d01b6064820152608401610360565b600084116105b25760405162461bcd60e51b815260206004820152602360248201527f537472696b65207072696365206d75737420626520677265617465722074686160448201526206e20360ec1b6064820152608401610360565b600380549060006105c2836114b8565b909155505060408051610140810182526003548082526020808301898152838501899052606084018890526080840187905260a08401869052600060c0850181905260e08501819052610100850181905261012085018190529283526004909152929020815181559151909190600182019061063e9082611559565b50604082810151600283015560608301516003808401919091556080840151600484015560a0840151600584015560c0840151600684015560e0840151600784015561010080850151600890940180546101209096015161ffff1990961694151561ff001916949094179415150293909317909155905490517f76e4f7547f65d724459a9d5e9c22f475d043d441fe6b65bb4b4f007e5902e5f9906106ea908890889088908890611618565b60405180910390a25050505050565b610701610fe8565b6000838152600460205260409020600381015442106107555760405162461bcd60e51b815260206004820152601060248201526f13585c9ad95d081a185cc8195b99195960821b6044820152606401610360565b600881015460ff161561077a5760405162461bcd60e51b815260040161036090611647565b600082116107ca5760405162461bcd60e51b815260206004820152601d60248201527f416d6f756e74206d7573742062652067726561746572207468616e20300000006044820152606401610360565b600060646107d960018561147f565b6107e39190611496565b905060006107f1828561167e565b60015490915061080c906001600160a01b0316333087611071565b600086815260056020908152604080832033845290915290208515610863578184600601600082825461083f9190611466565b9091555050805482908290600090610858908490611466565b909155506108989050565b818460070160008282546108779190611466565b92505081905550818160010160008282546108929190611466565b90915550505b60408051871515815260208101849052339189917f3b8280c0b373e7d170b71b3cf420502d1edb6340a000ece87a2594c3db2ace8091015b60405180910390a3505050506108e66001600055565b505050565b6000838152600460208190526040909120908101544210156109465760405162461bcd60e51b8152602060048201526014602482015273546f6f206561726c7920746f207265736f6c766560601b6044820152606401610360565b600881015460ff161561096b5760405162461bcd60e51b815260040161036090611647565b60025460405163d47eed4560e01b81526000916001600160a01b03169063d47eed459061099e90879087906004016116ba565b602060405180830381865afa1580156109bb573d6000803e3d6000fd5b505050506040513d601f19601f820116820180604052508101906109df919061175d565b600254604051631df3cbc560e31b81529192506001600160a01b03169063ef9e5e28908390610a1490889088906004016116ba565b6000604051808303818588803b158015610a2d57600080fd5b505af1158015610a41573d6000803e3d6000fd5b505060025460058601546040516331d98b3f60e01b8152600095506001600160a01b0390921693506331d98b3f9250610a809160040190815260200190565b608060405180830381865afa158015610a9d573d6000803e3d6000fd5b505050506040513d601f19601f82011682018060405250810190610ac19190611776565b905060008160400151600019610ad791906117f3565b610ae290600a611901565b8251610b009067ffffffffffffffff16670de0b6b3a764000061147f565b610b0a9190611496565b600285015460088601805460ff196101009385101584021661ffff19909116176001179081905560405192935089927f6d4d544f5a6dcf38d77a232d3ef7358625c74877a1ad954fcb507872e7a05eaf92610b76920460ff169085909115158252602082015260400190565b60405180910390a250505050505050565b6060600080600080600080600080600460008b8152602001908152602001600020905080600101816002015482600301548360040154846006015485600701548660080160009054906101000a900460ff168760080160019054906101000a900460ff16878054610bf7906114d1565b80601f0160208091040260200160405190810160405280929190818152602001828054610c23906114d1565b8015610c705780601f10610c4557610100808354040283529160200191610c70565b820191906000526020600020905b815481529060010190602001808311610c5357829003601f168201915b505050505097509850985098509850985098509850985050919395975091939597565b60046020526000908152604090208054600182018054919291610cb5906114d1565b80601f0160208091040260200160405190810160405280929190818152602001828054610ce1906114d1565b8015610d2e5780601f10610d0357610100808354040283529160200191610d2e565b820191906000526020600020905b815481529060010190602001808311610d1157829003601f168201915b50505050600283015460038401546004850154600586015460068701546007880154600890980154969794969395509193909260ff808216916101009004168a565b610d78610fe8565b600083815260046020526040902060038101544210610dcc5760405162461bcd60e51b815260206004820152601060248201526f13585c9ad95d081a185cc8195b99195960821b6044820152606401610360565b600881015460ff1615610df15760405162461bcd60e51b815260040161036090611647565b60008211610e415760405162461bcd60e51b815260206004820152601d60248201527f416d6f756e74206d7573742062652067726561746572207468616e20300000006044820152606401610360565b600084815260056020908152604080832033845290915290208315610ee9578054831115610eb15760405162461bcd60e51b815260206004820152601760248201527f496e73756666696369656e7420596573207368617265730000000000000000006044820152606401610360565b82826006016000828254610ec5919061167e565b9091555050805483908290600090610ede90849061167e565b90915550610f6b9050565b8281600101541015610f365760405162461bcd60e51b8152602060048201526016602482015275496e73756666696369656e74204e6f2073686172657360501b6044820152606401610360565b82826007016000828254610f4a919061167e565b9250508190555082816001016000828254610f65919061167e565b90915550505b60006064610f7a60018661147f565b610f849190611496565b90506000610f92828661167e565b600154909150610fac906001600160a01b03163383611012565b60408051871515815260208101879052339189917f3ca5714156ea83ec7410443193afc9c14a18f0d6704d9b2fe76c6a2ca170c64a91016108d0565b60026000540361100b57604051633ee5aeb560e01b815260040160405180910390fd5b6002600055565b6040516001600160a01b038381166024830152604482018390526108e691859182169063a9059cbb906064015b604051602081830303815290604052915060e01b6020820180516001600160e01b0383818316178352505050506110b0565b6040516001600160a01b0384811660248301528381166044830152606482018390526110aa9186918216906323b872dd9060840161103f565b50505050565b600080602060008451602086016000885af1806110d3576040513d6000823e3d81fd5b50506000513d915081156110eb5780600114156110f8565b6001600160a01b0384163b155b156110aa57604051635274afe760e01b81526001600160a01b0385166004820152602401610360565b60006020828403121561113357600080fd5b5035919050565b634e487b7160e01b600052604160045260246000fd5b6040516080810167ffffffffffffffff811182821017156111735761117361113a565b60405290565b604051601f8201601f1916810167ffffffffffffffff811182821017156111a2576111a261113a565b604052919050565b600080600080600060a086880312156111c257600080fd5b853567ffffffffffffffff8111156111d957600080fd5b8601601f810188136111ea57600080fd5b803567ffffffffffffffff8111156112045761120461113a565b611217601f8201601f1916602001611179565b81815289602083850101111561122c57600080fd5b816020840160208301376000602092820183015299908801359850604088013597606081013597506080013595509350505050565b60008060006060848603121561127657600080fd5b833592506020840135801515811461128d57600080fd5b929592945050506040919091013590565b600080604083850312156112b157600080fd5b8235915060208301356001600160a01b03811681146112cf57600080fd5b809150509250929050565b6000806000604084860312156112ef57600080fd5b83359250602084013567ffffffffffffffff81111561130d57600080fd5b8401601f8101861361131e57600080fd5b803567ffffffffffffffff81111561133557600080fd5b8660208260051b840101111561134a57600080fd5b939660209190910195509293505050565b6000815180845260005b8181101561138157602081850181015186830182015201611365565b506000602082860101526020601f19601f83011685010191505092915050565b610100815260006113b661010083018b61135b565b60208301999099525060408101969096526060860194909452608085019290925260a0840152151560c0830152151560e090910152919050565b8a81526101406020820152600061140b61014083018c61135b565b604083019a909a52506060810197909752608087019590955260a086019390935260c085019190915260e0840152151561010083015215156101209091015292915050565b634e487b7160e01b600052601160045260246000fd5b8082018082111561147957611479611450565b92915050565b808202811582820484141761147957611479611450565b6000826114b357634e487b7160e01b600052601260045260246000fd5b500490565b6000600182016114ca576114ca611450565b5060010190565b600181811c908216806114e557607f821691505b60208210810361150557634e487b7160e01b600052602260045260246000fd5b50919050565b601f8211156108e657806000526020600020601f840160051c810160208510156115325750805b601f840160051c820191505b81811015611552576000815560010161153e565b5050505050565b815167ffffffffffffffff8111156115735761157361113a565b6115878161158184546114d1565b8461150b565b6020601f8211600181146115bb57600083156115a35750848201515b600019600385901b1c1916600184901b178455611552565b600084815260208120601f198516915b828110156115eb57878501518255602094850194600190920191016115cb565b50848210156116095786840151600019600387901b60f8161c191681555b50505050600190811b01905550565b60808152600061162b608083018761135b565b6020830195909552506040810192909252606090910152919050565b60208082526017908201527f4d61726b657420616c7265616479207265736f6c766564000000000000000000604082015260600190565b8181038181111561147957611479611450565b81835281816020850137506000828201602090810191909152601f909101601f19169091010190565b6020808252810182905260006040600584901b830181019083018583601e1936839003015b8782101561175057868503603f1901845282358181126116fe57600080fd5b890160208101903567ffffffffffffffff81111561171b57600080fd5b80360382131561172a57600080fd5b611735878284611691565b965050506020830192506020840193506001820191506116df565b5092979650505050505050565b60006020828403121561176f57600080fd5b5051919050565b6000608082840312801561178957600080fd5b506000611794611150565b83518060070b81146117a4578283fd5b8152602084015167ffffffffffffffff811681146117c0578283fd5b60208201526040840151600381900b81146117d9578283fd5b604082015260609384015193810193909352509092915050565b60008260030b8260030b028060030b915080821461181357611813611450565b5092915050565b6001815b60018411156118555780850481111561183957611839611450565b600184161561184757908102905b60019390931c92800261181e565b935093915050565b60008261186c57506001611479565b8161187957506000611479565b816001811461188f5760028114611899576118b5565b6001915050611479565b60ff8411156118aa576118aa611450565b50506001821b611479565b5060208310610133831016604e8410600b84101617156118d8575081810a611479565b6118e5600019848461181a565b80600019048211156118f9576118f9611450565b029392505050565b600061191060ff84168361185d565b939250505056fea2646970667358221220c92fa5097fab1d21913ae43748f061f84a475464f857838678fa2a319df4c78e64736f6c634300081a0033",
    "linkReferences": {}
  },
  "methodIdentifiers": {
    "FEE_PERCENTAGE()": "000b46f8",
    "buyShares(uint256,bool,uint256)": "39b46372",
    "claimRewards(uint256)": "0962ef79",
    "createMarket(string,uint256,uint256,uint256,bytes32)": "2ae3b49f",
    "getMarketDetails(uint256)": "b06c1ba3",
    "getUserPosition(uint256,address)": "869da9db",
    "marketCount()": "ec979082",
    "markets(uint256)": "b1283e77",
    "paymentToken()": "3013ce29",
    "pythOracle()": "f5d6ac90",
    "resolveMarket(uint256,bytes[])": "92a8db3f",
    "sellShares(uint256,bool,uint256)": "cd9c30bb",
    "userPositions(uint256,address)": "8ae907f0"
  },
  "id": 12
}