{
  "abi": [
    {
      "type": "constructor",
      "inputs": [
        {
          "name": "_paymentToken",
          "type": "address",
          "internalType": "address"
        },
        {
          "name": "_pythOracle",
          "type": "address",
          "internalType": "address"
        }
      ],
      "stateMutability": "nonpayable"
    },
    {
      "type": "function",
      "name": "FEE_PERCENTAGE",
      "inputs": [],
      "outputs": [
        {
          "name": "",
          "type": "uint256",
          "internalType": "uint256"
        }
      ],
      "stateMutability": "view"
    },
    {
      "type": "function",
      "name": "buyShares",
      "inputs": [
        {
          "name": "_marketId",
          "type": "uint256",
          "internalType": "uint256"
        },
        {
          "name": "_isYes",
          "type": "bool",
          "internalType": "bool"
        },
        {
          "name": "_amount",
          "type": "uint256",
          "internalType": "uint256"
        }
      ],
      "outputs": [],
      "stateMutability": "nonpayable"
    },
    {
      "type": "function",
      "name": "claimRewards",
      "inputs": [
        {
          "name": "_marketId",
          "type": "uint256",
          "internalType": "uint256"
        }
      ],
      "outputs": [],
      "stateMutability": "nonpayable"
    },
    {
      "type": "function",
      "name": "createMarket",
      "inputs": [
        {
          "name": "_cryptoPair",
          "type": "string",
          "internalType": "string"
        },
        {
          "name": "_strikePrice",
          "type": "uint256",
          "internalType": "uint256"
        },
        {
          "name": "_endTime",
          "type": "uint256",
          "internalType": "uint256"
        },
        {
          "name": "_resolutionTime",
          "type": "uint256",
          "internalType": "uint256"
        },
        {
          "name": "_pythPriceId",
          "type": "bytes32",
          "internalType": "bytes32"
        }
      ],
      "outputs": [],
      "stateMutability": "nonpayable"
    },
    {
      "type": "function",
      "name": "getAllMarkets",
      "inputs": [],
      "outputs": [
        {
          "name": "",
          "type": "tuple[]",
          "internalType": "struct CryptoPredictionsMarket.Market[]",
          "components": [
            {
              "name": "id",
              "type": "uint256",
              "internalType": "uint256"
            },
            {
              "name": "cryptoPair",
              "type": "string",
              "internalType": "string"
            },
            {
              "name": "strikePrice",
              "type": "uint256",
              "internalType": "uint256"
            },
            {
              "name": "endTime",
              "type": "uint256",
              "internalType": "uint256"
            },
            {
              "name": "resolutionTime",
              "type": "uint256",
              "internalType": "uint256"
            },
            {
              "name": "pythPriceId",
              "type": "bytes32",
              "internalType": "bytes32"
            },
            {
              "name": "totalYesShares",
              "type": "uint256",
              "internalType": "uint256"
            },
            {
              "name": "totalNoShares",
              "type": "uint256",
              "internalType": "uint256"
            },
            {
              "name": "resolved",
              "type": "bool",
              "internalType": "bool"
            },
            {
              "name": "outcome",
              "type": "bool",
              "internalType": "bool"
            }
          ]
        }
      ],
      "stateMutability": "view"
    },
    {
      "type": "function",
      "name": "getMarketDetails",
      "inputs": [
        {
          "name": "_marketId",
          "type": "uint256",
          "internalType": "uint256"
        }
      ],
      "outputs": [
        {
          "name": "cryptoPair",
          "type": "string",
          "internalType": "string"
        },
        {
          "name": "strikePrice",
          "type": "uint256",
          "internalType": "uint256"
        },
        {
          "name": "endTime",
          "type": "uint256",
          "internalType": "uint256"
        },
        {
          "name": "resolutionTime",
          "type": "uint256",
          "internalType": "uint256"
        },
        {
          "name": "totalYesShares",
          "type": "uint256",
          "internalType": "uint256"
        },
        {
          "name": "totalNoShares",
          "type": "uint256",
          "internalType": "uint256"
        },
        {
          "name": "resolved",
          "type": "bool",
          "internalType": "bool"
        },
        {
          "name": "outcome",
          "type": "bool",
          "internalType": "bool"
        }
      ],
      "stateMutability": "view"
    },
    {
      "type": "function",
      "name": "getUserPosition",
      "inputs": [
        {
          "name": "_marketId",
          "type": "uint256",
          "internalType": "uint256"
        },
        {
          "name": "_user",
          "type": "address",
          "internalType": "address"
        }
      ],
      "outputs": [
        {
          "name": "yesShares",
          "type": "uint256",
          "internalType": "uint256"
        },
        {
          "name": "noShares",
          "type": "uint256",
          "internalType": "uint256"
        }
      ],
      "stateMutability": "view"
    },
    {
      "type": "function",
      "name": "marketCount",
      "inputs": [],
      "outputs": [
        {
          "name": "",
          "type": "uint256",
          "internalType": "uint256"
        }
      ],
      "stateMutability": "view"
    },
    {
      "type": "function",
      "name": "markets",
      "inputs": [
        {
          "name": "",
          "type": "uint256",
          "internalType": "uint256"
        }
      ],
      "outputs": [
        {
          "name": "id",
          "type": "uint256",
          "internalType": "uint256"
        },
        {
          "name": "cryptoPair",
          "type": "string",
          "internalType": "string"
        },
        {
          "name": "strikePrice",
          "type": "uint256",
          "internalType": "uint256"
        },
        {
          "name": "endTime",
          "type": "uint256",
          "internalType": "uint256"
        },
        {
          "name": "resolutionTime",
          "type": "uint256",
          "internalType": "uint256"
        },
        {
          "name": "pythPriceId",
          "type": "bytes32",
          "internalType": "bytes32"
        },
        {
          "name": "totalYesShares",
          "type": "uint256",
          "internalType": "uint256"
        },
        {
          "name": "totalNoShares",
          "type": "uint256",
          "internalType": "uint256"
        },
        {
          "name": "resolved",
          "type": "bool",
          "internalType": "bool"
        },
        {
          "name": "outcome",
          "type": "bool",
          "internalType": "bool"
        }
      ],
      "stateMutability": "view"
    },
    {
      "type": "function",
      "name": "paymentToken",
      "inputs": [],
      "outputs": [
        {
          "name": "",
          "type": "address",
          "internalType": "contract IERC20"
        }
      ],
      "stateMutability": "view"
    },
    {
      "type": "function",
      "name": "pythOracle",
      "inputs": [],
      "outputs": [
        {
          "name": "",
          "type": "address",
          "internalType": "contract IPyth"
        }
      ],
      "stateMutability": "view"
    },
    {
      "type": "function",
      "name": "resolveMarket",
      "inputs": [
        {
          "name": "_marketId",
          "type": "uint256",
          "internalType": "uint256"
        },
        {
          "name": "_pythUpdateData",
          "type": "bytes[]",
          "internalType": "bytes[]"
        }
      ],
      "outputs": [],
      "stateMutability": "payable"
    },
    {
      "type": "function",
      "name": "sellShares",
      "inputs": [
        {
          "name": "_marketId",
          "type": "uint256",
          "internalType": "uint256"
        },
        {
          "name": "_isYes",
          "type": "bool",
          "internalType": "bool"
        },
        {
          "name": "_amount",
          "type": "uint256",
          "internalType": "uint256"
        }
      ],
      "outputs": [],
      "stateMutability": "nonpayable"
    },
    {
      "type": "function",
      "name": "userPositions",
      "inputs": [
        {
          "name": "",
          "type": "uint256",
          "internalType": "uint256"
        },
        {
          "name": "",
          "type": "address",
          "internalType": "address"
        }
      ],
      "outputs": [
        {
          "name": "yesShares",
          "type": "uint256",
          "internalType": "uint256"
        },
        {
          "name": "noShares",
          "type": "uint256",
          "internalType": "uint256"
        }
      ],
      "stateMutability": "view"
    },
    {
      "type": "event",
      "name": "MarketCreated",
      "inputs": [
        {
          "name": "marketId",
          "type": "uint256",
          "indexed": true,
          "internalType": "uint256"
        },
        {
          "name": "cryptoPair",
          "type": "string",
          "indexed": false,
          "internalType": "string"
        },
        {
          "name": "strikePrice",
          "type": "uint256",
          "indexed": false,
          "internalType": "uint256"
        },
        {
          "name": "endTime",
          "type": "uint256",
          "indexed": false,
          "internalType": "uint256"
        },
        {
          "name": "resolutionTime",
          "type": "uint256",
          "indexed": false,
          "internalType": "uint256"
        }
      ],
      "anonymous": false
    },
    {
      "type": "event",
      "name": "MarketResolved",
      "inputs": [
        {
          "name": "marketId",
          "type": "uint256",
          "indexed": true,
          "internalType": "uint256"
        },
        {
          "name": "outcome",
          "type": "bool",
          "indexed": false,
          "internalType": "bool"
        },
        {
          "name": "resolutionPrice",
          "type": "uint256",
          "indexed": false,
          "internalType": "uint256"
        }
      ],
      "anonymous": false
    },
    {
      "type": "event",
      "name": "RewardsClaimed",
      "inputs": [
        {
          "name": "marketId",
          "type": "uint256",
          "indexed": true,
          "internalType": "uint256"
        },
        {
          "name": "user",
          "type": "address",
          "indexed": true,
          "internalType": "address"
        },
        {
          "name": "amount",
          "type": "uint256",
          "indexed": false,
          "internalType": "uint256"
        }
      ],
      "anonymous": false
    },
    {
      "type": "event",
      "name": "SharesBought",
      "inputs": [
        {
          "name": "marketId",
          "type": "uint256",
          "indexed": true,
          "internalType": "uint256"
        },
        {
          "name": "buyer",
          "type": "address",
          "indexed": true,
          "internalType": "address"
        },
        {
          "name": "isYes",
          "type": "bool",
          "indexed": false,
          "internalType": "bool"
        },
        {
          "name": "amount",
          "type": "uint256",
          "indexed": false,
          "internalType": "uint256"
        }
      ],
      "anonymous": false
    },
    {
      "type": "event",
      "name": "SharesSold",
      "inputs": [
        {
          "name": "marketId",
          "type": "uint256",
          "indexed": true,
          "internalType": "uint256"
        },
        {
          "name": "seller",
          "type": "address",
          "indexed": true,
          "internalType": "address"
        },
        {
          "name": "isYes",
          "type": "bool",
          "indexed": false,
          "internalType": "bool"
        },
        {
          "name": "amount",
          "type": "uint256",
          "indexed": false,
          "internalType": "uint256"
        }
      ],
      "anonymous": false
    },
    {
      "type": "error",
      "name": "ReentrancyGuardReentrantCall",
      "inputs": []
    },
    {
      "type": "error",
      "name": "SafeERC20FailedOperation",
      "inputs": [
        {
          "name": "token",
          "type": "address",
          "internalType": "address"
        }
      ]
    }
  ],
  "bytecode": {
    "object": "0x6080604052348015600f57600080fd5b50604051611d4b380380611d4b833981016040819052602c91607c565b6001600081905580546001600160a01b039384166001600160a01b0319918216179091556002805492909316911617905560aa565b80516001600160a01b0381168114607757600080fd5b919050565b60008060408385031215608e57600080fd5b6095836061565b915060a1602084016061565b90509250929050565b611c92806100b96000396000f3fe6080604052600436106100dc5760003560e01c806392a8db3f1161007f578063b1283e7711610059578063b1283e77146102ab578063cd9c30bb146102e1578063ec97908214610301578063f5d6ac901461031757600080fd5b806392a8db3f14610242578063b06c1ba314610255578063b0772d0b1461028957600080fd5b80633013ce29116100bb5780633013ce291461014b57806339b4637214610183578063869da9db146101a35780638ae907f01461020357600080fd5b80620b46f8146100e15780630962ef79146101095780632ae3b49f1461012b575b600080fd5b3480156100ed57600080fd5b506100f6600181565b6040519081526020015b60405180910390f35b34801561011557600080fd5b5061012961012436600461136f565b610337565b005b34801561013757600080fd5b506101296101463660046113f8565b6104e6565b34801561015757600080fd5b5060015461016b906001600160a01b031681565b6040516001600160a01b039091168152602001610100565b34801561018f57600080fd5b5061012961019e3660046114af565b610736565b3480156101af57600080fd5b506101ee6101be3660046114ec565b60009182526005602090815260408084206001600160a01b03939093168452919052902080546001909101549091565b60408051928352602083019190915201610100565b34801561020f57600080fd5b506101ee61021e3660046114ec565b60056020908152600092835260408084209091529082529020805460019091015482565b610129610250366004611528565b610928565b34801561026157600080fd5b5061027561027036600461136f565b610bc4565b6040516101009897969594939291906115ef565b34801561029557600080fd5b5061029e610cd0565b604051610100919061163e565b3480156102b757600080fd5b506102cb6102c636600461136f565b610ee1565b6040516101009a99989796959493929190611725565b3480156102ed57600080fd5b506101296102fc3660046114af565b610fbe565b34801561030d57600080fd5b506100f660035481565b34801561032357600080fd5b5060025461016b906001600160a01b031681565b61033f611236565b6000818152600460205260409020600881015460ff166103a65760405162461bcd60e51b815260206004820152601760248201527f4d61726b6574206e6f74207265736f6c7665642079657400000000000000000060448201526064015b60405180910390fd5b600082815260056020908152604080832033845290915281206008830154909190610100900460ff161561040557600683015460078401546103e8908261179b565b83546103f491906117b4565b6103fe91906117cb565b9050610436565b6007830154600684015461041a90829061179b565b836001015461042991906117b4565b61043391906117cb565b90505b6000811161047c5760405162461bcd60e51b81526020600482015260136024820152724e6f207265776172647320746f20636c61696d60681b604482015260640161039d565b60008083556001808401919091555461049f906001600160a01b03163383611260565b604051818152339085907f3300bdb359cfb956935bca32e9db727413eab1ca84341f2e36caea85bb7969689060200160405180910390a35050506104e36001600055565b50565b4283116105355760405162461bcd60e51b815260206004820152601e60248201527f456e642074696d65206d75737420626520696e20746865206675747572650000604482015260640161039d565b8282116105935760405162461bcd60e51b815260206004820152602660248201527f5265736f6c7574696f6e2074696d65206d75737420626520616674657220656e604482015265642074696d6560d01b606482015260840161039d565b600084116105ef5760405162461bcd60e51b815260206004820152602360248201527f537472696b65207072696365206d75737420626520677265617465722074686160448201526206e20360ec1b606482015260840161039d565b600380549060006105ff836117ed565b909155505060408051610140810182526003548082526020808301898152838501899052606084018890526080840187905260a08401869052600060c0850181905260e08501819052610100850181905261012085018190529283526004909152929020815181559151909190600182019061067b9082611888565b50604082810151600283015560608301516003808401919091556080840151600484015560a0840151600584015560c0840151600684015560e0840151600784015561010080850151600890940180546101209096015161ffff1990961694151561ff001916949094179415150293909317909155905490517f76e4f7547f65d724459a9d5e9c22f475d043d441fe6b65bb4b4f007e5902e5f990610727908890889088908890611947565b60405180910390a25050505050565b61073e611236565b6000838152600460205260409020600381015442106107925760405162461bcd60e51b815260206004820152601060248201526f13585c9ad95d081a185cc8195b99195960821b604482015260640161039d565b600881015460ff16156107b75760405162461bcd60e51b815260040161039d90611976565b600082116108075760405162461bcd60e51b815260206004820152601d60248201527f416d6f756e74206d7573742062652067726561746572207468616e2030000000604482015260640161039d565b600060646108166001856117b4565b61082091906117cb565b9050600061082e82856119ad565b600154909150610849906001600160a01b03163330876112bf565b6000868152600560209081526040808320338452909152902085156108a0578184600601600082825461087c919061179b565b909155505080548290829060009061089590849061179b565b909155506108d59050565b818460070160008282546108b4919061179b565b92505081905550818160010160008282546108cf919061179b565b90915550505b60408051871515815260208101849052339189917f3b8280c0b373e7d170b71b3cf420502d1edb6340a000ece87a2594c3db2ace8091015b60405180910390a3505050506109236001600055565b505050565b6000838152600460208190526040909120908101544210156109835760405162461bcd60e51b8152602060048201526014602482015273546f6f206561726c7920746f207265736f6c766560601b604482015260640161039d565b600881015460ff16156109a85760405162461bcd60e51b815260040161039d90611976565b60025460405163d47eed4560e01b81526000916001600160a01b03169063d47eed45906109db90879087906004016119e9565b602060405180830381865afa1580156109f8573d6000803e3d6000fd5b505050506040513d601f19601f82011682018060405250810190610a1c9190611a8c565b600254604051631df3cbc560e31b81529192506001600160a01b03169063ef9e5e28908390610a5190889088906004016119e9565b6000604051808303818588803b158015610a6a57600080fd5b505af1158015610a7e573d6000803e3d6000fd5b505060025460058601546040516331d98b3f60e01b8152600095506001600160a01b0390921693506331d98b3f9250610abd9160040190815260200190565b608060405180830381865afa158015610ada573d6000803e3d6000fd5b505050506040513d601f19601f82011682018060405250810190610afe9190611aa5565b905060008160400151600019610b149190611b22565b610b1f90600a611c30565b8251610b3d9067ffffffffffffffff16670de0b6b3a76400006117b4565b610b4791906117cb565b600285015460088601805460ff196101009385101584021661ffff19909116176001179081905560405192935089927f6d4d544f5a6dcf38d77a232d3ef7358625c74877a1ad954fcb507872e7a05eaf92610bb3920460ff169085909115158252602082015260400190565b60405180910390a250505050505050565b6060600080600080600080600080600460008b8152602001908152602001600020905080600101816002015482600301548360040154846006015485600701548660080160009054906101000a900460ff168760080160019054906101000a900460ff16878054610c3490611806565b80601f0160208091040260200160405190810160405280929190818152602001828054610c6090611806565b8015610cad5780601f10610c8257610100808354040283529160200191610cad565b820191906000526020600020905b815481529060010190602001808311610c9057829003601f168201915b505050505097509850985098509850985098509850985050919395975091939597565b6060600060035467ffffffffffffffff811115610cef57610cef611388565b604051908082528060200260200182016040528015610d7d57816020015b610d6a60405180610140016040528060008152602001606081526020016000815260200160008152602001600081526020016000801916815260200160008152602001600081526020016000151581526020016000151581525090565b815260200190600190039081610d0d5790505b50905060015b6003548111610edb57600460008281526020019081526020016000206040518061014001604052908160008201548152602001600182018054610dc590611806565b80601f0160208091040260200160405190810160405280929190818152602001828054610df190611806565b8015610e3e5780601f10610e1357610100808354040283529160200191610e3e565b820191906000526020600020905b815481529060010190602001808311610e2157829003601f168201915b505050918352505060028201546020820152600382015460408201526004820154606082015260058201546080820152600682015460a0820152600782015460c082015260089091015460ff808216151560e08401526101009182900416151591015282610ead6001846119ad565b81518110610ebd57610ebd611c46565b60200260200101819052508080610ed3906117ed565b915050610d83565b50919050565b60046020526000908152604090208054600182018054919291610f0390611806565b80601f0160208091040260200160405190810160405280929190818152602001828054610f2f90611806565b8015610f7c5780601f10610f5157610100808354040283529160200191610f7c565b820191906000526020600020905b815481529060010190602001808311610f5f57829003601f168201915b50505050600283015460038401546004850154600586015460068701546007880154600890980154969794969395509193909260ff808216916101009004168a565b610fc6611236565b60008381526004602052604090206003810154421061101a5760405162461bcd60e51b815260206004820152601060248201526f13585c9ad95d081a185cc8195b99195960821b604482015260640161039d565b600881015460ff161561103f5760405162461bcd60e51b815260040161039d90611976565b6000821161108f5760405162461bcd60e51b815260206004820152601d60248201527f416d6f756e74206d7573742062652067726561746572207468616e2030000000604482015260640161039d565b6000848152600560209081526040808320338452909152902083156111375780548311156110ff5760405162461bcd60e51b815260206004820152601760248201527f496e73756666696369656e742059657320736861726573000000000000000000604482015260640161039d565b8282600601600082825461111391906119ad565b909155505080548390829060009061112c9084906119ad565b909155506111b99050565b82816001015410156111845760405162461bcd60e51b8152602060048201526016602482015275496e73756666696369656e74204e6f2073686172657360501b604482015260640161039d565b8282600701600082825461119891906119ad565b92505081905550828160010160008282546111b391906119ad565b90915550505b600060646111c86001866117b4565b6111d291906117cb565b905060006111e082866119ad565b6001549091506111fa906001600160a01b03163383611260565b60408051871515815260208101879052339189917f3ca5714156ea83ec7410443193afc9c14a18f0d6704d9b2fe76c6a2ca170c64a910161090d565b60026000540361125957604051633ee5aeb560e01b815260040160405180910390fd5b6002600055565b6040516001600160a01b0383811660248301526044820183905261092391859182169063a9059cbb906064015b604051602081830303815290604052915060e01b6020820180516001600160e01b0383818316178352505050506112fe565b6040516001600160a01b0384811660248301528381166044830152606482018390526112f89186918216906323b872dd9060840161128d565b50505050565b600080602060008451602086016000885af180611321576040513d6000823e3d81fd5b50506000513d91508115611339578060011415611346565b6001600160a01b0384163b155b156112f857604051635274afe760e01b81526001600160a01b038516600482015260240161039d565b60006020828403121561138157600080fd5b5035919050565b634e487b7160e01b600052604160045260246000fd5b6040516080810167ffffffffffffffff811182821017156113c1576113c1611388565b60405290565b604051601f8201601f1916810167ffffffffffffffff811182821017156113f0576113f0611388565b604052919050565b600080600080600060a0868803121561141057600080fd5b853567ffffffffffffffff81111561142757600080fd5b8601601f8101881361143857600080fd5b803567ffffffffffffffff81111561145257611452611388565b611465601f8201601f19166020016113c7565b81815289602083850101111561147a57600080fd5b816020840160208301376000602092820183015299908801359850604088013597606081013597506080013595509350505050565b6000806000606084860312156114c457600080fd5b83359250602084013580151581146114db57600080fd5b929592945050506040919091013590565b600080604083850312156114ff57600080fd5b8235915060208301356001600160a01b038116811461151d57600080fd5b809150509250929050565b60008060006040848603121561153d57600080fd5b83359250602084013567ffffffffffffffff81111561155b57600080fd5b8401601f8101861361156c57600080fd5b803567ffffffffffffffff81111561158357600080fd5b8660208260051b840101111561159857600080fd5b939660209190910195509293505050565b6000815180845260005b818110156115cf576020818501810151868301820152016115b3565b506000602082860101526020601f19601f83011685010191505092915050565b6101008152600061160461010083018b6115a9565b60208301999099525060408101969096526060860194909452608085019290925260a0840152151560c0830152151560e090910152919050565b6000602082016020835280845180835260408501915060408160051b86010192506020860160005b8281101561171957603f19878603018452815180518652602081015161014060208801526116986101408801826115a9565b905060408201516040880152606082015160608801526080820151608088015260a082015160a088015260c082015160c088015260e082015160e08801526101008201516116eb61010089018215159052565b50610120820151915061170361012088018315159052565b9550506020938401939190910190600101611666565b50929695505050505050565b8a81526101406020820152600061174061014083018c6115a9565b604083019a909a52506060810197909752608087019590955260a086019390935260c085019190915260e0840152151561010083015215156101209091015292915050565b634e487b7160e01b600052601160045260246000fd5b808201808211156117ae576117ae611785565b92915050565b80820281158282048414176117ae576117ae611785565b6000826117e857634e487b7160e01b600052601260045260246000fd5b500490565b6000600182016117ff576117ff611785565b5060010190565b600181811c9082168061181a57607f821691505b602082108103610edb57634e487b7160e01b600052602260045260246000fd5b601f82111561092357806000526020600020601f840160051c810160208510156118615750805b601f840160051c820191505b81811015611881576000815560010161186d565b5050505050565b815167ffffffffffffffff8111156118a2576118a2611388565b6118b6816118b08454611806565b8461183a565b6020601f8211600181146118ea57600083156118d25750848201515b600019600385901b1c1916600184901b178455611881565b600084815260208120601f198516915b8281101561191a57878501518255602094850194600190920191016118fa565b50848210156119385786840151600019600387901b60f8161c191681555b50505050600190811b01905550565b60808152600061195a60808301876115a9565b6020830195909552506040810192909252606090910152919050565b60208082526017908201527f4d61726b657420616c7265616479207265736f6c766564000000000000000000604082015260600190565b818103818111156117ae576117ae611785565b81835281816020850137506000828201602090810191909152601f909101601f19169091010190565b6020808252810182905260006040600584901b830181019083018583601e1936839003015b87821015611a7f57868503603f190184528235818112611a2d57600080fd5b890160208101903567ffffffffffffffff811115611a4a57600080fd5b803603821315611a5957600080fd5b611a648782846119c0565b96505050602083019250602084019350600182019150611a0e565b5092979650505050505050565b600060208284031215611a9e57600080fd5b5051919050565b60006080828403128015611ab857600080fd5b506000611ac361139e565b83518060070b8114611ad3578283fd5b8152602084015167ffffffffffffffff81168114611aef578283fd5b60208201526040840151600381900b8114611b08578283fd5b604082015260609384015193810193909352509092915050565b60008260030b8260030b028060030b9150808214611b4257611b42611785565b5092915050565b6001815b6001841115611b8457808504811115611b6857611b68611785565b6001841615611b7657908102905b60019390931c928002611b4d565b935093915050565b600082611b9b575060016117ae565b81611ba8575060006117ae565b8160018114611bbe5760028114611bc857611be4565b60019150506117ae565b60ff841115611bd957611bd9611785565b50506001821b6117ae565b5060208310610133831016604e8410600b8410161715611c07575081810a6117ae565b611c146000198484611b49565b8060001904821115611c2857611c28611785565b029392505050565b6000611c3f60ff841683611b8c565b9392505050565b634e487b7160e01b600052603260045260246000fdfea2646970667358221220d92d3fb72e069e24730da855e83432fba9b4009f8ada6b961727b38b217a6b1864736f6c634300081a0033",
    "linkReferences": {}
  },
  "methodIdentifiers": {
    "FEE_PERCENTAGE()": "000b46f8",
    "buyShares(uint256,bool,uint256)": "39b46372",
    "claimRewards(uint256)": "0962ef79",
    "createMarket(string,uint256,uint256,uint256,bytes32)": "2ae3b49f",
    "getAllMarkets()": "b0772d0b",
    "getMarketDetails(uint256)": "b06c1ba3",
    "getUserPosition(uint256,address)": "869da9db",
    "marketCount()": "ec979082",
    "markets(uint256)": "b1283e77",
    "paymentToken()": "3013ce29",
    "pythOracle()": "f5d6ac90",
    "resolveMarket(uint256,bytes[])": "92a8db3f",
    "sellShares(uint256,bool,uint256)": "cd9c30bb",
    "userPositions(uint256,address)": "8ae907f0"
  },
  "id": 36
}